:08000000803102288731FD2F39
:10000A0020001C08FC3901389C0087309C05080038
:10001A0021002A08F0002B08F100F201F301003058
:10002A0081316621803173082100B1007208B00065
:10003A007108AF007008AE003108A5003008A400AE
:10004A002F08A3002E08A2008031682080312100E9
:10005A002308B3002208B20032083304031D3628ED
:10006A00372841282A082B0403193C283D2841280F
:10007A000130B2000030B30032080239AC00AC0ED5
:10008A00AC0D2500130821002C06DF392C062500AB
:10009A009300210032080139AC00AC0E2500130888
:1000AA0021002C06EF392C06250093002100330885
:1000BA00AD003208AC00AD36AC0CAD36AC0C2C0839
:1000CA00250091000800210025082000A700210032
:1000DA0024082000A600210023082000A5002100F2
:1000EA0022082000A4004030A3008030A200003083
:1000FA00A1000030A0008531C225803120002308EC
:10010A002100A900200022082100A80020002108BF
:10011A002100A700200020082100A60029082000AD
:10012A00A700210028082000A60021002708200097
:10013A00A500210026082000A4001B08013EF000AB
:10014A00003003180130F100F201F11BF2037208CA
:10015A00F300013081316621803173082000A30049
:10016A007208A2007108A1007008A0008531C2259A
:10017A00803120002308C1002208C0002108BF00E6
:10018A002008BE004430BD007F30BC00C030BB0038
:10019A000030BA0082311022803120003D08EB0085
:1001AA003C08EA003B08E9003A08E8008F31842756
:1001BA008031200069082100A3002000680821007E
:1001CA00A2000800210025082000A7002100240819
:1001DA002000A600210023082000A50021002208F3
:1001EA002000A4004030A3008030A2000030A1000B
:1001FA000030A0008531C22580312000230821006B
:10020A00A900200022082100A800200021082100BE
:10021A00A700200020082100A6004B302000C100C2
:10022A007430C0002430BF000030BE00210029080D
:10023A002000A700210028082000A6002100270886
:10024A002000A500210026082000A4004030A300B9
:10025A008030A2000030A1000030A0008531C22504
:10026A00803120002308BD002208BC002108BB0001
:10027A002008BA0082311022803120003D08DB00BC
:10028A003C08DA003B08D9003A08D800BF30D7004A
:10029A008030D6000030D5000030D4008331BA2334
:1002AA00803120005708EB005608EA005508E9009B
:1002BA005408E8008F3184278031200068089B00A9
:1002CA000800F800780803196B296C298029F31FA4
:1002DA006F29702980297009FA007109FB007209D7
:1002EA00FC007309FD00FA0A0319FB0A0319FC0A48
:1002FA000319FD0A88297308FD007208FC007108B9
:10030A00FB007008FA007308720471047004031D7C
:10031A008F29902999290030F3000030F20000302B
:10032A00F1000030F0000F2A9630F900A7290130B9
:10033A00F4007408F9070130FD36FC0CFB0CFA0CCA
:10034A00890BA129FE307D05031DAC29AD299C2905
:10035A00C1290130F4007408F9070130FA070030A6
:10036A00FB3D0030FC3D0030FD3D0130FD36FC0C0C
:10037A00FB0CFA0C890BBB29FF307D05031DC6292E
:10038A00C729AE29D1290130F9020130FA35FB0D0E
:10039A00FC0DFD0D890BCB29FC1BD429D529DB29A2
:1003AA00023079020318DA29DB29C8297918DE29EB
:1003BA00DF29E729FF30FA05FF30FB057F30FC050E
:1003CA00FF30FD050310F90C7908F400F501F60178
:1003DA00F7011830F435F50DF60DF70D890BEF29F5
:1003EA007408FA047508FB047608FC047708FD040F
:1003FA0078080319012A022A072AF31F052A062A5E
:10040A00072AFD177D08F3007C08F2007B08F1003B
:10041A007A08F0000800200041088039CB004135F5
:10042A00D200C01F192A1A2A1B2A52145208031969
:10043A001F2A202A302A520A031D242A252A2D2A55
:10044A000030C1000030C0000030BF000030BE00E4
:10045A00C017C101382A0030C1000030C000003086
:10046A00BF000030BE003D088039C2004208CB06FA
:10047A003D35D300BC1F422A432A442A5314530849
:10048A000319482A492A592A530A031D4D2A4E2A72
:10049A00562A0030BD000030BC000030BB000030DE
:1004AA00BA00BC17BD01612A0030BD000030BC0093
:1004BA000030BB000030BA003D083C043B043A045B
:1004CA00031D682A692A822A0030C1000030C00050
:1004DA000030BF000030BE008030C0047F30C1044D
:1004EA004B08C2004208C1044108BD004008BC00D4
:1004FA003F08BB003E08BA00B92B5208031D862AE2
:10050A00872A902A0030BD000030BC000030BB00B2
:10051A000030BA00B92B5208C200C3014308C50013
:10052A0053084202C400031CC50344087F3ECC00A2
:10053A000030453DCD004108CA004008C9003F08C7
:10054A00C8003E08C7000030C1000030C0000030BB
:10055A00BF000030BE000030D1000030D0000030B3
:10056A00CF000030CE00D301F82A53080319BE2A5F
:10057A00BF2AD92A0130C735C80DC90DCA0D890B42
:10058A00C02A0130BE35BF0DC00DC10D890BC72A67
:10059A00D11FD02AD12AD22A3E140130CE35CF0D0E
:1005AA00D00DD10D890BD32A3D084A02031DE72A33
:1005BA003C084902031DE72A3B084802031DE72AB3
:1005CA003A084702031CEA2AEB2AF42A51173A0886
:1005DA00C7023B08C83B3C08C93B3D08CA3B01303F
:1005EA00C2004208D3071A305302031CFD2AFE2A0E
:1005FA00BA2A4A084904480447040319052B062B5A
:10060A001F2B4E141F2B0130BE35BF0DC00DC10D5F
:10061A00890B092BD11F122B132B142B3E140130DB
:10062A00CE35CF0DD00DD10D890B152BFF30CC0750
:10063A00FF30CD3DC01F222B232B082BD301D11F06
:10064A00272B282B442BFF304E05C200FF304F05C5
:10065A00C300FF305005C4007F305105C50045086E
:10066A0044044304420403193B2B3C2B3F2BD30184
:10067A00D30A442B3E1C422B432B442B3C2B5308BE
:10068A000319482B492B712B0130BE070030BF3D9F
:10069A000030C03D0030C13D411C542B552B712BFD
:1006AA003E08C2003F08C3004008C4004108C50014
:1006BA000130C600C537C40CC30CC20CC60B5F2B75
:1006CA004508C1004408C0004308BF004208BE00F4
:1006DA000130CC070030CD3D4D08803AC200803051
:1006EA004202031D7A2BFF304C02031C7D2B7E2B0A
:1006FA008B2BFF302000CC000030CD000030C10031
:10070A000030C0000030BF000030BE0020004D089D
:10071A00803AC20080304202031D952B01304C0200
:10072A000318982B992BA52B2000CC01CD01003062
:10073A00C1000030C0000030BF000030BE00CB0155
:10074A0020004C08D200521CAB2BAC2BAE2BC0178E
:10075A00B22B7F30C2004208C0055236C1004B0896
:10076A00C2004208C104792A0800200057088039CB
:10077A00E4005735E600D61FC32BC42BC52B6614DD
:10078A0066080319C92BCA2BDA2B660A031DCE2B5E
:10079A00CF2BD72B0030D7000030D6000030D50041
:1007AA000030D400D617D701E22B0030D700003032
:1007BA00D6000030D5000030D4005B088039E5004F
:1007CA00650864060319EA2BEB2BEC2B64175B35DF
:1007DA00E500DA1FF12BF22BF32B651465080319D8
:1007EA00F72BF82B082C650A031DFC2BFD2B052C77
:1007FA000030DB000030DA000030D9000030D800C9
:10080A00DA17DB01102C0030DB000030DA00003090
:10081A00D9000030D800660865020318152C162C7A
:10082A003C2C641F192C1A2C1E2C8030DC005C080E
:10083A00E4066608E7006508E6006708E50054086C
:10084A00E7005808D4006708D8005508E700590897
:10085A00D5006708D9005608E7005A08D600670885
:10086A00DA005708E7005B08D7006708DB00E701F2
:10087A006508DC00DD015D08DF0066085C02DE0059
:10088A00031CDF035F08803AE00080306002031D2A
:10089A00502C1A305E02031C532C542C862C200038
:1008AA005708560455045404031D5C2C5E2C013071
:1008BA005F2C0030E7000030D7000030D60000304F
:1008CA00D5000030D4006508E6008D2C671C6E2C1C
:1008DA006F2C732C67360138E700752C0310E70C70
:1008EA00541C782C792C7A2CE7170130DC00D73786
:1008FA00D60CD50CD40CDC0B7C2C0130DC005C084B
:10090A00E607200065086602031C8C2C8D2C6B2CD4
:10091A00641B902C912CC72C6608031D952C962CD1
:10092A009F2C0030D7000030D6000030D5000030B0
:10093A00D400C12D5808D4075908D53D5A08D63DC8
:10094A005B08D73D571CAA2CAB2C532D671CAE2C29
:10095A00AF2CB32C67360138E700B52C0310E70C2F
:10096A00541CB82CB92CBA2CE7170130DC00D73745
:10097A00D60CD50CD40CDC0BBC2C0130DC005C088A
:10098A00E607532D5708803ADC005B08803A5C0280
:10099A00031DD92C5A085602031DD92C5908550291
:1009AA00031DD92C580854020318DC2CDD2C152DF4
:1009BA00FF30DC00FF30DD00FF30DE00FF30DF00FB
:1009CA0054085802E0005508593BE10056085A3BC2
:1009DA00E20057085B3BE3006008DC076108DD3D85
:1009EA006208DE3D6308DF3D5F08D7005E08D60077
:1009FA005D08D5005C08D4008030DC005C08E406A1
:100A0A00E709E70A6708031D0B2D0C2D1D2D013080
:100A1A00D4070030D53D0030D63D0030D73D1D2DDE
:100A2A005808D4025908D53B5A08D63B5B08D73B2D
:100A3A005708560455045404031D242D252D4F2D03
:100A4A006708031D292D2A2D4F2D0030D7000030AD
:100A5A00D6000030D5000030D400C12D0130D43585
:100A6A00D50DD60DD70D890B342DE71F3D2D3E2D03
:100A7A003F2D5414671C422D432D462D0314E70DB8
:100A8A00482D0310E70D660803194C2D4D2D4F2DE7
:100A9A000130E602D61F522D532D332DE501E71FF3
:100AAA00572D582D662D67087F3903195D2D5E2D48
:100ABA00612DE501E50A662D541C642D652D662D10
:100ACA005E2D650803196A2D6B2D982D0130D40708
:100ADA000030D53D0030D63D0030D73D571C762D2D
:100AEA00772D982D5408DC005508DD005608DE00E5
:100AFA005708DF000130E000DF37DE0CDD0CDC0CCC
:100B0A00E00B812D5F08D7005E08D6005D08D5008E
:100B1A005C08D400660A0319932D942D982D013090
:100B2A00DC005C08E607660A03199C2D9D2DA22DA0
:100B3A006608031DA12DA22DB02D0030D70000306C
:100B4A00D6000030D5000030D4006608031DAE2D53
:100B5A00AF2DB02DE401661CB32DB42DB62DD617DA
:100B6A00BA2D7F30DC005C08D6056636D700E41F54
:100B7A00BF2DC02DC12DD7170800200023088039AA
:100B8A00AD002335B300A21FCB2DCC2DCD2D3314B0
:100B9A0033080319D12DD22DE12D330A031DD62D89
:100BAA00D72DDF2D0030A3000030A2000030A100B5
:100BBA000030A000A217E92D0030A3000030A200E7
:100BCA000030A1000030A00027088039A8002808BA
:100BDA00AD062735B200A61FF32DF42DF52D3214DC
:100BEA0032080319F92DFA2D092E320A031DFE2D9A
:100BFA00FF2D072E0030A7000030A6000030A50008
:100C0A000030A400A617112E0030A7000030A6005D
:100C1A000030A5000030A40032080319152E162E44
:100C2A001B2E3308031D1A2E1B2E242E0030A30060
:100C3A000030A2000030A1000030A000FC2F2008E4
:100C4A00F00026088F311227853171082000B9007B
:100C5A007008B8003808A800A901AA01AB012B083E
:100C6A00B1002A08B0002908AF002808AE003908E8
:100C7A00A800A901AA01AB012B08B7002A08B600EF
:100C8A002908B5002808B4002108F00025088F318A
:100C9A001227853171082000B9007008B800380899
:100CAA00A800A901AA01AB012808AE072908AF3D8F
:100CBA002A08B03D2B08B13D3908A800A901AA01AC
:100CCA00AB012808B4072908B53D2A08B63D2B0808
:100CDA00B73D2208F00024088F31122785317108A8
:100CEA002000B9007008B8003808A800A901AA01B4
:100CFA00AB012808AE072908AF3D2A08B03D2B08EA
:100D0A00B13D3908A800A901AA01AB012808B40716
:100D1A002908B53D2A08B63D2B08B73D0830AE353F
:100D2A00AF0DB00DB10D890B942E2108F0002408E7
:100D3A008F311227853171082000B9007008B80078
:100D4A003808AE073908AF3D0030B03DB13D200844
:100D5A00F00025088F311227853171082000B9006B
:100D6A007008B8003808AE073908AF3D0030B03D0A
:100D7A00B13D0830AE35AF0DB00DB10D890BBF2EA8
:100D8A002008F00024088F311227853171082000CD
:100D9A00B9007008B8003808AE073908AF3D00300E
:100DAA00B03DB13D2108F00026088F311227853168
:100DBA0071082000B9007008B8003808B40739086B
:100DCA00B53D0030B63DB73D2208F00025088F3109
:100DDA001227853171082000B9007008B800380858
:100DEA00B4073908B53D0030B63DB73D2208F000DA
:100DFA0026088F311227853171082000B900700842
:100E0A00B8003808A8003908A900AA01AB010830BF
:100E1A00A835A90DAA0DAB0D890B0D2F2808B4070B
:100E2A002908B53D2A08B63D2B08B73D2E08A8006B
:100E3A002F08A9003008AA003108AB001830AB36D9
:100E4A00AA0CA90CA80C890B242F2808B407290876
:100E5A00B53D2A08B63D2B08B73D0830AE35AF0D73
:100E6A00B00DB10D890B332F33083207A800A90141
:100E7A00A90D2808823EB800FF30293DB9005C2F31
:100E8A000130B435B50DB60DB70D890B462FB11F1C
:100E9A004F2F502F512F34140130AE35AF0DB00DF6
:100EAA00B10D890B522FFF30B807FF30B93DB61F7D
:100EBA005F2F602F452FB201B11F642F652F812F3D
:100ECA00FF302E05A800FF302F05A900FF3030059E
:100EDA00AA007F303105AB002B082A042904280414
:100EEA000319782F792F7C2FB201B20A812F341C73
:100EFA007F2F802F812F792F32080319852F862F74
:100F0A00AE2F0130B4070030B53D0030B63D003099
:100F1A00B73D371C912F922FAE2F3408A800350801
:100F2A00A9003608AA003708AB000130AC00AB377D
:100F3A00AA0CA90CA80CAC0B9C2F2B08B7002A08EA
:100F4A00B6002908B5002808B4000130B8070030F7
:100F5A00B93D3908803AA80080302802031DB72F0E
:100F6A00FF303802031CBA2FBB2FC52F7F30200059
:100F7A00B7008030B6000030B5000030B400F02F62
:100F8A0020003908803AA80080302802031DCF2F9C
:100F9A00013038020318D22FD32FDE2F0030200061
:100FAA00B7000030B6000030B5000030B400AD0123
:100FBA00F02F20003808B300FF30B405FF30B50524
:100FCA007F30B6050030B705331CEC2FED2FEE2F1E
:100FDA00B6173336B7002D08A8002808B704370813
:100FEA00A3003608A2003508A1003408A0000800B2
:060FFA0020008F31352FAD
:101E1C007830210099040800F800F401F5017008ED
:101E2C00F200F3017208F6007308F700781C1F2FFC
:101E3C00202F242F7608F4077708F53D0130F6356E
:101E4C00F70D890B252F0310F80C7808031D2F2F85
:101E5C00302F1C2F7508F1007408F00008008F312A
:101E6C000E278F3123008C018D018E0183302100D0
:101E7C009D059D101D141E088F3950389E009E170D
:101E8C0023000C1421000C14803105208F314330B9
:101E9C002100A500FA30A4000030A3000030A200FD
:101EAC008031E7208F3120001C159A0125009315F5
:101EBC00131521000E1120000E1121009D149D18E8
:101ECC00682F692F652F1C08B7001B08B600370850
:101EDC00AB003608AA0080310D208F310230210072
:101EEC00B5000430B400BA30890B7A2FB40B7A2FBA
:101EFC00B50B7A2F0000632F8031022803102000CD
:101F0C006A0D6B0D2100A1002108031D8E2F8F2F50
:101F1C00992F00302000EB000030EA000030E9007F
:101F2C000030E800FF2F20006808EC006908ED0085
:101F3C006A08EE006B08EF001F30EF36EE0CED0C6C
:101F4C00EC0C890BA32F6C082100A0002000EA17D1
:101F5C00FF30E805FF30E905FF30EA050030EB05FE
:101F6C0096302100A102A11FBC2FBD2FD72F210815
:101F7C00803A973E0318C32FC42FC52F8F2F0130E3
:101F8C002000EB36EA0CE90CE80C890BC62F01306B
:101F9C00EC006C082100A107031DD52FD62FC52FEF
:101FAC00EE2F20302102031CDC2FDD2FE92F8F2F89
:101FBC0001302000E835E90DEA0DEB0D890BDF2F20
:101FCC0001302100A1022108031DED2FEE2FDE2F81
:101FDC0020080319F22FF32FFF2F2000E809E9093D
:101FEC00EA09EB09E80A0319E90A0319EA0A0319D1
:041FFC00EB0A0800E4
:020000040001F9
:08000000FF3FFF3FFF3FFF3F00
:04000E00EC09FF1FDB
:00000001FF
